:020000040800F2
:1000000000300020A9230008D11E0008D31E0008DC
:10001000D51E0008D71E0008D91E000800000000E9
:10002000000000000000000000000000DB1E0008CF
:10003000DD1E000800000000DF1E0008E11E0008B1
:10004000F9230008F9230008F9230008F923000820
:10005000F9230008F9230008F9230008F923000810
:10006000F9230008F9230008F9230008F923000800
:10007000F9230008F9230008F9230008F9230008F0
:10008000F9230008F9230008F9230008F9230008E0
:10009000F9230008F9230008F9230008F9230008D0
:1000A000F9230008F9230008F9230008F9230008C0
:1000B000F9230008F923000800000000F9230008D4
:1000C000F92300080000000000000000F9230008E8
:1000D00000000000F9230008F9230008F9230008B4
:1000E000ED1E0008F92300080000000000000000D9
:1000F0000000000000000000000000000000000000
:1001000000000000000000000000000000000000EF
:100110000000000000000000011F0008F923000893
:1001200000000000000000000000000000000000CF
:1001300000000000000000000000000000000000BF
:10014000F9230008F9230008000000000000000067
:10015000000000000000000000000000000000009F
:10016000000000000000000000000000000000008F
:10017000000000000000000000000000000000007F
:0801800000000000F923000853
:1001880010B5054C237833B9044B13B10448AFF3C9
:1001980000800123237010BD0C0000200000000027
:1001A800442400080C4B43B10C480D4910B5AFF37B
:1001B80000800C48036823B910BD0A48036833B9A6
:1001C8007047094B002BF7D0BDE810401847064B85
:1001D800002BF5D0184700BF000000004424000899
:1001E800100000200C0000200000000010B4036A7A
:1001F800046A24F001040462846924F0F00444EAE7
:10020800021223F00A030B43826103625DF8044B78
:10021800704710B4036A23F0100303628469036A09
:1002280024F4704444EA023223F0A00343EA0113A1
:10023800826103625DF8044B7047836823F07003A2
:1002480041F007010B43836070470268D36843F0AD
:100258000103D3600268136843F0010313600020B0
:1002680070477047704770477047704710B504462D
:1002780003681A6912F0020F11D0DA6812F0020F3F
:100288000DD06FF002021A610123037703689B699E
:1002980013F0030F79D0FFF7E6FF002323772368D5
:1002A8001A6912F0040F12D0DA6812F0040F0ED097
:1002B8006FF004021A610223237723689B6913F401
:1002C800407F68D02046FFF7CEFF002323772368BE
:1002D8001A6912F0080F12D0DA6812F0080F0ED05F
:1002E8006FF008021A61042323772368DB6913F08F
:1002F800030F57D02046FFF7B6FF00232377236864
:100308001A6912F0100F12D0DA6812F0100F0ED01E
:100318006FF010021A61082323772368DB6913F44E
:10032800407F46D02046FFF79EFF002323772368AF
:100338001A6912F0010F03D0DA6812F0010F3FD1E9
:1003480023681A6912F0800F03D0DA6812F0800F60
:100358003DD123681A6912F4807F03D0DA6812F05D
:10036800800F3BD123681A6912F0400F03D0DA6876
:1003780012F0400F39D123681A6912F0200F03D008
:10038800DA6812F0200F37D110BDFFF76BFF204657
:10039800FFF76AFF81E72046FFF764FF2046FFF773
:1003A80063FF92E72046FFF75DFF2046FFF75CFFFB
:1003B800A3E72046FFF756FF2046FFF755FFB4E7AF
:1003C8006FF001021A61204601F034FEB8E76FF0C1
:1003D80080021A61204601F060F8BAE76FF4807273
:1003E8001A61204601F05AF8BCE76FF040021A6122
:1003F8002046FFF73AFFBEE76FF020021A61204659
:1004080001F04AF8C0E700000368234A90423DD053
:10041800B0F1804F3AD0A2F59432904236D01E4ABD
:10042800904212D0B0F1804F0FD0A2F59432904292
:100438000BD002F59E32904207D002F580629042BE
:1004480003D002F58062904203D123F44073CA6856
:10045800134323F080034A69134303608B68C36224
:100468000B6883620C4B98420BD003F5A05398425B
:1004780007D003F58063984203D003F58063984260
:1004880001D10B69036301234361704723F07003B3
:100498004A681343C3E700BF002C0140A8B110B558
:1004A800044690F83D305BB1022384F83D30211DAD
:1004B8002068FFF7A9FF012384F83D30002010BD14
:1004C80080F83C3001F0B6FCEEE701207047A8B197
:1004D80010B5044690F83D305BB1022384F83D30F6
:1004E800211D2068FFF790FF012384F83D3000208C
:1004F80010BD80F83C30FFF7B4FEEEE701207047EE
:1005080030B4036A23F001030362036A4468826912
:1005180022F4803222F073020D682A4323F002038A
:100528008D682B43184DA84227D005F5A055A84241
:1005380023D005F58065A8421FD005F58065A8423F
:100548001BD0114DA8420BD005F5A055A84207D0E5
:1005580005F58065A84203D005F58065A84205D158
:1005680024F440744D692C438D692C4344608261A6
:100578004A684263036230BC704723F00803CD68C1
:100588002B4323F00403DCE7002C014030B4036A5A
:1005980023F010030362036A4468826922F08072C0
:1005A80022F4E6420D6842EA052223F020038D6812
:1005B80043EA0513144DA8421DD0134DA8420BD091
:1005C80005F5A055A84207D005F58065A84203D0D7
:1005D80005F58065A84207D124F440644D6944EAD2
:1005E80085048D6944EA8504446082614A688263AF
:1005F800036230BC704723F08003CD6843EA0513DB
:1006080023F04003D9E700BF002C014030B4036A4F
:1006180023F480730362036A4468C26922F4803257
:1006280022F073020D682A4323F400738D6843EAAD
:100638000523144DA8421DD0124DA8420BD005F534
:10064800A055A84207D005F58065A84203D005F556
:100658008065A84207D124F440544D6944EA051442
:100668008D6944EA05144460C2614A68C263036242
:1006780030BC704723F40063CD6843EA052323F4B4
:100688008063D9E7002C014030B4036A23F4805317
:100698000362026A4468C36923F0807323F4E64363
:1006A8000D6843EA052322F400528D6842EA0532B8
:1006B8000D4DA8420BD005F5A055A84207D005F569
:1006C8008065A84203D005F58065A84204D124F4CA
:1006D80080444D6944EA85144460C3614B680364EF
:1006E800026230BC704700BF002C014010B484681F
:1006F80024F47F4442EA032319430C4384605DF8E1
:10070800044B704790F83C30012B00F0828010B504
:100718000446012380F83C30022380F83D3002680B
:1007280090683D4B034093600B68402B5DD010D917
:10073800702B40D01FD8502B4DD0602B34D1CA68B5
:1007480049682068FFF765FD60212068FFF775FD9F
:100758002AE0102B53D008D9202B55D0302B23D189
:1007680030212068FFF769FD1EE0EBB90021206801
:10077800FFF763FD18E0B3F5805F0ED0B3F5005FB7
:1007880012D1CB684A6889682068FFF7AFFF2268F2
:10079800936843F48043936006E02268936823F4E7
:1007A800803323F007039360012384F83D30002051
:1007B80084F83C0010BDCB684A6889682068FFF758
:1007C80095FF2268936823F4803323F0770343F07E
:1007D80077039360E8E7CA6849682068FFF706FD71
:1007E80050212068FFF729FDDEE7CA6849682068BC
:1007F800FFF7FCFC40212068FFF71FFDD4E710211C
:100808002068FFF71AFDCFE720212068FFF715FDC4
:10081800CAE70220704700BF8800FEFF10B401231A
:1008280003FA01F4036A23EA04030362036A8A40B1
:10083800134303625DF8044B7047000010B504468B
:1008480001220068FFF7EAFF2368124A93421AD090
:1008580002F5A052934218D002F58062934216D056
:1008680002F5806293420CD000221AB15A6C42F40D
:1008780000425A642268136843F0010313600020A1
:1008880010BD0122F1E70122EFE70122EDE7012285
:10089800EBE700BF002C014090F84130DBB2202B81
:1008A80001D00220704790F84030012B20D001235E
:1008B80080F84030242380F841300268136823F020
:1008C800010313600268136823F4805313600268FD
:1008D8001368194311600268136843F00103136039
:1008E800202380F84130002380F8403018467047B4
:1008F8000220704790F84130DBB2202B01D0022053
:10090800704790F84030012B1ED0012380F840300A
:10091800242380F841300268136823F00103136030
:100928000268136823F4706343EA012111600268C6
:10093800136843F001031360202380F8413000233B
:1009480080F840301846704702207047F0B583B0F1
:100958000446036813F4803F44D05F4BDB6913F00F
:10096800805F6ED15C4BDA6942F08052DA61DB69F4
:1009780003F080530193019B0125584B1B6813F426
:10098800807F60D0544B1B6A13F4407321D0626897
:1009980002F4407293421CD04F48016A21F4407619
:1009A8004FF4803393FAA3F2B2FA82F24C4F3A44EE
:1009B80092004FF0010EC2F800E093FAA3F3B3FAE5
:1009C80083F33B449B0000221A60066211F0010F7A
:1009D8004DD1414A136A23F4407361680B43136293
:1009E800002D6FD1236813F0010F06D03A4A136B1C
:1009F80023F00303A1680B431363236813F0200F4C
:100A080006D0354A136B23F01003E1680B431363D8
:100A1800236813F0800F06D02F4AD36A23F4F873A3
:100A280021690B43D362236813F4805F51D02A4AAB
:100A3800136B23F4807361690B431363002003B0C5
:100A4800F0BD002599E7254A136843F480731360C5
:100A580000F0E4FB0646214B1B6813F4807F91D11C
:100A680000F0DCFB801B6428F5D90320E7E700F0E1
:100A7800D5FB064614E0184B196A022393FAA3F330
:100A8800B3FA83F303F01F03012202FA03F31942B6
:100A98009FD100F0C3FB801B41F28833984216D8DF
:100AA800022393FAA3F293FAA3F3B3FA83F35B094D
:100AB80043F00203022BDED0022393FAA3F3064B82
:100AC800596ADAE7D36923F08053D3618AE70320B0
:100AD800B5E70020B3E700BF0010024000700040F7
:100AE8000081901003689A6912F0020F01D0002269
:100AF8009A6203689A6912F0010F03D19A6942F069
:100B080001029A61704770B4039D066870686C0DA5
:100B180004F4806444F07F7444F4583444F47F74DB
:100B280044F0030420EA0400C1F3090141EA024148
:100B3800194329430843706070BC704770B5044678
:100B48000D46164603689B6913F0100F17D02368EB
:100B58009A6912F0200F14D1B5F1FF3FF7D025B1F3
:100B680000F05CFB801B8542F1D2202384F84130E1
:100B7800002384F8423084F84030032070BD002000
:100B880070BD1022DA6123682025DD612046FFF759
:100B9800A9FF2268536823F0FF7323F48B3323F4EF
:100BA800FF7323F0010353600423636484F8415006
:100BB800002384F8423084F84030012070BD70B5BD
:100BC80004460D46164623689B6913F0020F1CD194
:100BD800324629462046FFF7B1FFC0B9B5F1FF3FBD
:100BE800F1D025B100F01AFB801B8542EBD2636C73
:100BF80043F020036364202384F84130002384F801
:100C0800423084F84030032070BD002070BD0120C0
:100C180070BDF8B505460F4616461C462B689B69FD
:100C280037EA03030CBF01230023B34213D1B4F105
:100C3800FF3FF3D02CB100F0F1FA069BC01A8442B2
:100C4800ECD2202385F84130002385F8423085F81E
:100C580040300320F8BD0020F8BD70B505460C46AD
:100C680016462B689B6913F0200F19D1324621468E
:100C78002846FFF763FFA8B924B100F0CFFA801B1C
:100C88008442EED26B6C43F020036B64202385F81A
:100C98004130002385F8423085F84030032070BD8C
:100CA800002070BD012070BD002859D010B5044641
:100CB80090F84130002B43D0242384F84130226837
:100CC800136823F0010313602268636823F07063DC
:100CD80013612268936823F400439360E368012B4F
:100CE80033D02268A36843F404439360E368022B7B
:100CF80031D02268536843F0007343F400435360D3
:100D08002268D36823F40043D360226823696169A9
:100D18000B43A16943EA0123D3602268E369216A8E
:100D28000B4313602268136843F00103136000202B
:100D38006064202384F84130206384F8420010BDA9
:100D480080F8403001F04CF8B6E72268A36843F415
:100D580000439360CAE723684FF400625A60C8E70B
:100D6800012070472DE9F04383B090F84150EDB26F
:100D7800202D04D00223184603B0BDE8F08390F874
:100D88004040012C01D10223F5E7984617460D464D
:100D980004464FF0010980F8409000F03FFA0646FB
:100DA800009019234A464FF400412046FFF731FFCF
:100DB80008B10323DFE7212384F84130102384F8A6
:100DC8004230002363646762A4F82A806363638DFA
:100DD8009BB2FF2B0AD9FF222285434B00934FF089
:100DE800807329462046FFF78EFE1FE0628D92B27F
:100DF80022853D4B00934FF00073D2B2294620461E
:100E0800FFF781FE12E0636C042B01D00323B2E7E5
:100E18000123B0E7628D92B22285002300934FF040
:100E28000073D2B229462046FFF76DFE638D9BB250
:100E3800002B32D032460A992046FFF7C0FE002820
:100E4800E1D12268636A591C61621B789362638DE1
:100E58009BB2013B9BB26385238D013B9BB22385EB
:100E6800002BE3D1638D9BB2002BDFD000960A9B49
:100E7800002280212046FFF7CCFE90BB638D9BB2F9
:100E8800FF2BC7D9FF222285002300934FF08073E0
:100E980029462046FFF737FEC8E732460A9920461A
:100EA800FFF7DBFE034630B1636C042B01D003234C
:100EB80061E701235FE722682021D1612068426849
:100EC80022F0FF7222F48B3222F4FF7222F0010228
:100ED800426084F84110002284F8422084F84020BF
:100EE80049E7032347E700BF00200080F0B583B03F
:100EF800002388E0DE08083650F8264003F0070E85
:100F08004FEA8E0E0F2707FA0EF724EA07040F6937
:100F180007FA0EF73C4340F8264083E086682640EF
:100F2800CF6807FA0EF73E438660466826EA05054D
:100F38004E68C6F300169E4035434560C5682C4090
:100F48008D6805FA0EF52C43C4604C6814F0805F78
:100F580058D0474CA56945F00105A561A46904F07E
:100F680001040194019C9D08AE1C424C54F8264093
:100F780003F00306B6000F27B74024EA0704B0F1D0
:100F8800904F6CD03C4FB8426BD007F58067B842A1
:100F980069D007F58067B8425FD0052707FA06F6DB
:100FA80034430235334E46F82540344C2568D44343
:100FB80005EA04064F6817F4803F01D042EA0506A7
:100FC8002E4D2E606D6804EA05064F6817F4003F41
:100FD80001D042EA0506294D6E60AD6804EA0506AF
:100FE8004F6817F4801F01D042EA0506234DAE6012
:100FF800ED682C404E6816F4001F01D042EA050443
:101008001E4AD46001330A6832FA03F42DD0012550
:101018009D402A40F6D04C68022C3FF46BAF122C4E
:101028003FF468AF06684FEA430E032404FA0EF44F
:10103800E44326404F6807F0030707FA0EF73E43DC
:1010480006604E68771E012F7FF668AF112E3FF4B9
:1010580065AF122E7FF472AF60E703279EE7002783
:101068009CE701279AE7022798E703B0F0BD00BF85
:101078000010024000000140000400480004014044
:1010880008B5054B5B69034200D108BD024B5861A6
:1010980000F0A4FFF9E700BF00040140074AD36845
:1010A80023F4E0631B041B0C000200F4E060184307
:1010B80040F0BF6040F40030D060704700ED00E0C1
:1010C80030B4164BDB68C3F30223C3F10704042CC6
:1010D80028BF04241D1D062D17D9033B012505FA39
:1010E80004F4013C2140994005FA03F3013B134005
:1010F800194300280BDB0901C9B200F1604000F573
:10110800614080F8001330BC70470023E6E700F028
:101118000F000901C9B2024B1954F4E700ED00E0D1
:1011280014ED00E0420900F01F00012303FA00F06B
:10113800014B43F82200704700E100E00138B0F1AC
:10114800807F0AD2064B5860F021064A82F82310A5
:101158000020986007221A6070470120704700BF7E
:1011680010E000E000ED00E0042805D0054A13680F
:1011780023F0040313607047024A136843F0040322
:101188001360704710E000E0704708B5FFF7FCFFF8
:1011980008BD000010B504460E4B18784FF47A735A
:1011A800B3FBF0F30C4A1068B0FBF3F0FFF7C6FF8F
:1011B80068B90F2C01D9012010BD002221464FF03B
:1011C800FF30FFF77DFF054B1C60002010BD01209C
:1011D80010BD00BF0000002008000020040000200F
:1011E80008B5074A136843F0100313600320FFF79C
:1011F80055FF0020FFF7CEFF00F0B4FD002008BD2A
:1012080000200240034A1168034B1B780B4413600B
:10121800704700BF2800002000000020014B18681C
:10122800704700BF2800002038B50446FFF7F6FFD6
:101238000546B4F1FF3F02D0044B1B781C44FFF76E
:10124800EDFF401B8442FAD838BD00BF00000020E3
:1012580030B4036A23F480330362026A4468436D3E
:1012680023F4803323F070030D682B4322F40032FB
:101278008D6842EA05420D4DA8420BD005F5A055F0
:10128800A84207D005F58065A84203D005F580651A
:10129800A84204D124F480344D6944EA052444600A
:1012A80043654B688365026230BC7047002C01407F
:1012B80030B4036A23F480130362026A4468436DFE
:1012C80023F0807323F4E0430D6843EA052322F4F6
:1012D80000128D6842EA05520D4DA8420BD005F563
:1012E800A055A84207D005F58065A84203D005F5AA
:1012F8008065A84204D124F480244D6944EA8524F9
:10130800446043654B68C365026230BC704700BFE8
:10131800002C014038B590F83C30012B00F0928049
:101328000D460446012380F83C30022380F83D3006
:10133800142A1ED8DFE802F00B1D1D1D241D1D1DDB
:10134800381D1D1D4B1D1D1D5F1D1D1D72000068D4
:10135800FFF7D6F82268936943F00803936122687F
:10136800936923F0040393612268936929690B4305
:101378009361012384F83D30002084F83C0038BD97
:101388000068FFF703F92268936943F400639361E7
:101398002268936923F480639361226893692969B9
:1013A80043EA01239361E4E70068FFF72FF9226815
:1013B800D36943F00803D3612268D36923F0040397
:1013C800D3612268D36929690B43D361D1E70068E7
:1013D800FFF75AF92268D36943F40063D36122689E
:1013E800D36923F48063D3612268D369296943EA06
:1013F8000123D361BDE70068FFF72AFF2268536D18
:1014080043F0080353652268536D23F004035365C2
:101418002268536D29690B435365AAE70068FFF7F3
:1014280047FF2268536D43F4006353652268536D88
:1014380023F4806353652268536D296943EA0123C5
:10144800536596E7022038BD90F83C30012B1FD039
:1014580030B4012380F83C3004686368A2680D4DFD
:10146800AC4210D023F070030D682B4322F08002A9
:1014780089680A43636003689A60002380F83C30F7
:10148800184630BC704723F470034D682B43E9E7D6
:1014980002207047002C01407047704770470000D9
:1014A80070B582B00446036813F0010F63D0B54BE2
:1014B8005B6803F00C03042B46D0B24B5B6803F067
:1014C8000C03082B3BD06368B3F5803F00F08E8097
:1014D800002B40F0918003F1804303F504331A6830
:1014E80022F480321A601A6822F480221A60A54A0F
:1014F800D36A23F00F03A1680B43D3626368002B00
:1015080000F09480FFF78AFE05464FF4003393FA03
:10151800A3F39C4B19684FF4003393FAA3F3B3FA7F
:1015280083F303F01F03012202FA03F3194222D1C5
:10153800FFF774FE401B6428E7D90320ABE2914B08
:101548005B6813F4803FBED04FF4003393FAA3F3E3
:101558008C4B19684FF4003393FAA3F3B3FA83F36F
:1015680003F01F03012202FA03F3194203D0636850
:10157800002B00F08982236813F0020F00F09C8092
:10158800804B5B6813F00C0F72D07E4B5B6803F0E6
:101598000C03082B67D02369002B00F0CB800122B5
:1015A80092FAA2F3B3FA83F303F1845303F5841395
:1015B8009B001A60FFF732FE0546022393FAA3F355
:1015C800704B1968022393FAA3F3B3FA83F303F079
:1015D8001F03012202FA03F3194240F09C80FFF72F
:1015E8001DFE401B0228E8D9032054E2654A13680F
:1015F80043F4803313607AE7B3F5A02F09D0614B29
:101608001A6822F480321A601A6822F480221A605A
:101618006DE703F18043A3F53C331A6842F4802256
:101628001A601A6842F480321A6060E7FFF7F6FD24
:1016380005464FF4003393FAA3F3524B19684FF45D
:10164800003393FAA3F3B3FA83F303F01F030122E1
:1016580002FA03F319428ED0FFF7E0FD401B64281D
:10166800E7D9032017E2474B5B6813F4803F92D118
:10167800022393FAA3F3434B1968022393FAA3F3C3
:10168800B3FA83F303F01F03012202FA03F31942AA
:1016980004D02369934201D00120FCE13948036852
:1016A80023F0F8036169F82292FAA2F2B2FA82F200
:1016B80001FA02F213430360236813F0080F00F0E5
:1016C8008D80A369002B61D0012191FAA1F2B2FAB1
:1016D80082F22D4B13449B001960FFF79FFD0546CE
:1016E800022393FAA3F293FAA3F293FAA3F2254AF8
:1016F800516A93FAA3F3B3FA83F303F01F030122A9
:1017080002FA03F3194269D1FFF788FD401B02284A
:10171800E6D90320BFE11B48036823F0F803616999
:10172800F82292FAA2F2B2FA82F201FA02F2134312
:101738000360C1E7012393FAA3F3B3FA83F303F138
:10174800845303F584139B0000221A60FFF766FD9B
:101758000546022393FAA3F30A4B1968022393FA66
:10176800A3F3B3FA83F303F01F03012202FA03F38E
:101778001942A1D0FFF752FD401B0228E9D90320E6
:1017880089E100BF0010024020819010012292FAE6
:10179800A2F2B2FA82F2C14B13449B0000221A60F3
:1017A800FFF73CFD0546022393FAA3F293FAA3F24E
:1017B80093FAA3F2BA4A516A93FAA3F3B3FA83F3FA
:1017C80003F01F03012202FA03F3194206D0FFF7C0
:1017D80025FD401B0228E6D903205CE1236813F0AD
:1017E800040F00F0B380AE4BDB6913F0805F26D1A5
:1017F800AB4BDA6942F08052DA61DB6903F080535F
:101808000193019B0125A74B1B6813F4807F18D017
:10181800E368012B29D073BB03F1804303F504333C
:101828001A6A22F001021A621A6A22F004021A6283
:10183800E368002B5DD0FFF7F1FC064647E0002582
:10184800E1E7984A136843F480731360FFF7E6FCF6
:101858000646944B1B6813F4807FD9D1FFF7DEFC52
:10186800801B6428F5D9032015E18D4A136A43F0DB
:1018780001031362DCE7052B09D0894B1A6A22F0B1
:1018880001021A621A6A22F004021A62D0E7844B33
:101898001A6A42F004021A621A6A42F001021A62D3
:1018A800C6E77F4B196A022393FAA3F3B3FA83F3CB
:1018B80003F01F03012202FA03F3194245D1FFF78F
:1018C800ADFC801B41F28833984200F2DF8002238E
:1018D80093FAA3F293FAA3F3B3FA83F35B0943F001
:1018E8000203022BDDD0022393FAA3F36C4B596A4F
:1018F800D9E7FFF793FC064615E0694B196A0223FE
:1019080093FAA3F3B3FA83F303F01F03012202FA55
:1019180003F3194219D0FFF781FC801B41F2883389
:10192800984200F2B580022393FAA3F293FAA3F344
:10193800B3FA83F35B0943F00203022BDDD00223E1
:1019480093FAA3F3564B596AD9E7B5BBE369002B61
:1019580000F0A080524A526802F00C02082A00F0F7
:10196800A380022B2FD04FF0807393FAA3F3B3FA1E
:1019780083F303F1845303F584139B0000221A6058
:10198800FFF74CFC04464FF0007393FAA3F3444B63
:1019980019684FF0007393FAA3F3B3FA83F303F0D3
:1019A8001F03012202FA03F319426BD0FFF736FC3A
:1019B800001B0228E7D903206DE0394AD36923F0D8
:1019C8008053D361C2E74FF0807393FAA3F3B3FA5D
:1019D80083F303F1845303F584139B0000221A60F8
:1019E800FFF71CFC05464FF0007393FAA3F32C4B4A
:1019F80019684FF0007393FAA3F3B3FA83F303F073
:101A08001F03012202FA03F3194206D0FFF706FC6E
:101A1800401B0228E7D903203DE021494B6823F405
:101A28007413626A206A024313434B604FF0807359
:101A380093FAA3F3B3FA83F303F1845303F58413FE
:101A48009B0001221A60FFF7E9FB04464FF0007380
:101A580093FAA3F3124B19684FF0007393FAA3F3A8
:101A6800B3FA83F303F01F03012202FA03F31942C6
:101A780006D1FFF7D3FB001B0228E7D903200AE0B1
:101A8800002008E0002006E0012004E0032002E036
:101A9800032000E0002002B070BD00BF208190103C
:101AA80000100240007000400120F4E7164B5B680C
:101AB80003F00C02082A24D103F470114FF47012B9
:101AC80092FAA2F2B2FA82F221FA02F20F49885C83
:101AD8000D4AD26A02F00F020F2191FAA1F1B1FA70
:101AE80081F1CA400A498A5C13F4803F03D1094B4B
:101AF80003FB00F07047084BB3FBF2F303FB00F065
:101B080070470548704700BF001002405C24000879
:101B18006C24000800093D0000127A00704B1B6815
:101B280003F007038B420CD26D4A136823F00703B6
:101B38000B431360136803F00703994201D0012097
:101B4800704770B5036813F0020F06D0654A5368F2
:101B580023F0F0038468234353600D46044603686A
:101B680013F0010F7AD04368012B2FD0022B42D0FB
:101B7800022292FAA2F25B4A1068022292FAA2F2B8
:101B8800B2FA82F202F01F02012101FA02F21042B7
:101B980000F0A48053494A6822F0030213434B60C3
:101BA800FFF73CFB06466368012B39D0022B46D071
:101BB8004C4B5B6813F00C0F50D0FFF72FFB801BCA
:101BC80041F288339842F3D9032070BD4FF40032B4
:101BD80092FAA2F2434A10684FF4003292FAA2F243
:101BE800B2FA82F202F01F02012101FA02F2104257
:101BF800D0D1012070BD4FF0007292FAA2F2394A9A
:101C080010684FF0007292FAA2F2B2FA82F202F071
:101C18001F02012101FA02F21042BBD1012070BD5E
:101C2800304B5B6803F00C03042B17D0FFF7F6FA70
:101C3800801B41F288339842F2D9032070BD294BAA
:101C48005B6803F00C03082B08D0FFF7E7FA801B4A
:101C580041F288339842F2D9032070BD204B1B68AB
:101C680003F007039D420CD21D4A136823F00703B3
:101C78002B431360136803F007039D4201D0012032
:101C880070BD236813F0040F06D0164A536823F476
:101C9800E063E1680B435360236813F0080F07D033
:101CA800104A536823F46053216943EAC10353601F
:101CB800FFF7FCFE0B4B5B6803F0F003F02292FA8F
:101CC800A2F2B2FA82F2D340074AD35CD840074B5B
:101CD80018600020FFF75EFA002070BD012070BD7B
:101CE80000200240001002407C2400080800002068
:101CF800014B1868704700BF080000201549D1F84B
:101D0800883043F47003C1F88830134B1A6842F0E6
:101D180001021A605868114A02405A601A6822F093
:101D2800847222F480321A601A6822F480221A60BF
:101D38005A6822F4FE025A60DA6A22F00F02DA6266
:101D4800186B074A02401A6300229A604FF000633A
:101D58008B60704700ED00E0001002400CC07FF877
:101D6800CCFC00FF00B583B01C4B9A6942F001021D
:101D78009A619B6903F001030193019B0320FFF71C
:101D88008DF9002211466FF00B00FFF799F9002238
:101D980011466FF00A00FFF793F9002211466FF021
:101DA8000900FFF78DF9002211466FF00400FFF7D4
:101DB80087F9002211466FF00300FFF781F900222E
:101DC80011466FF00100FFF77BF9002211464FF032
:101DD800FF30FFF775F903B05DF804FB001002400F
:101DE8000268114B9A4200D0704700B587B0C023F3
:101DF80001931223029301230393032304930423DF
:101E080005930DEB03010948FFF770F8084BDA69F1
:101E180042F40012DA61DB6903F400130093009BBB
:101E280007B05DF804FB00BF005400400004004800
:101E38000010024000B583B00368134A934205D0EE
:101E4800124A93420DD003B05DF804FB104BDA69D7
:101E580042F00202DA61DB6903F002030093009B9F
:101E6800F1E70B4BDA6942F01002DA61DB6903F043
:101E780010030193019B002201213620FFF720F96E
:101E88003620FFF74FF9DEE700040040001000405D
:101E98000010024002680A4B9A4200D0704700B511
:101EA80087B0332301930223029303930022049201
:101EB800059301A90348FFF719F807B05DF804FB7B
:101EC80000040040000400487047FEE7FEE7FEE714
:101ED800FEE770477047704708B5FFF793F9FFF7BB
:101EE80054F908BD08B54FF40060FFF7C9F84FF47E
:101EF8008050FFF7C5F808BD08B50248FEF7B6F9E7
:101F080008BD00BFB80000200C2923D8DFE801F085
:101F1800072222220E222222152222221C000368D6
:101F2800996911F0080F15D05A63704703689969C9
:101F380011F4006F0ED09A6370470368D96911F0E5
:101F4800080F07D0DA6370470368D96911F4006F86
:101F580000D01A647047000030B589B0194B5A692F
:101F680042F400325A615A6902F400320192019A2D
:101F78005A6942F480225A615B6903F48023029310
:101F8800029B40F29B1303930024049402250595B9
:101F980003A94FF09040FEF7A9FF4FF4C0530393F5
:101FA800094B0493059503A94FF09040FEF79EFF57
:101FB800224601212820FFF783F82820FFF7B2F8EE
:101FC80009B030BD001002400000111082B04FF07F
:101FD80090431B69019302B07047000010B5B0F53B
:101FE800006F10D0B0F5805F1AD10E4C204600F07B
:101FF800CFF90D49204600F0BCF9022204210B4814
:10200800FFF782FF10BD074C204600F0C1F90849D0
:10201800204600F0AEF9062204210448FFF774FFB9
:1020280010BD00BFF80000208C24000878000020B4
:102038009424000808B50268034B1B689A4200D034
:1020480008BDFFF7C3FFFBE7B8000020FEE700006C
:1020580000B58FB03848394B036040F2E73343602E
:10206800002383600722C26003618361FEF716FACA
:10207800002839D10EA94FF4805341F8103D2E485D
:10208800FEF740FB002834D12B48FEF720FA002841
:1020980034D100230793099307A92748FFF7D4F9F8
:1020A80088BB602300930022019202920492694641
:1020B8002148FFF72FF958BB042269461E48FFF74D
:1020C80029F950BB082269461B48FFF723F948BB8A
:1020D8000C2269461848FFF71DF940BB1648FFF760
:1020E800D9FE0FB05DF804FB40F22F111448FFF73A
:1020F800ADFF40F235111248FFF7A8FF4FF49D716C
:102108000F48FFF7A3FF40F241110D48FFF79EFF6C
:102118004FF4A5710A48FFF799FF40F24F1108489C
:10212800FFF794FF4FF4AA710548FFF78FFF40F2BD
:1021380059110348FFF78AFF780000200004004087
:102148009C24000800B585B01148124B036040F28A
:10215800E73343600023836041F63F72C2608361C6
:10216800FEF79CF950B900230193039301A908488D
:10217800FFF76AF938B905B05DF804FB40F26D1154
:102188000548FFF763FF4FF4BA710348FFF75EFF96
:10219800B8000020001000409C24000808B515482D
:1021A800154B0360154B4360002383600122C26016
:1021B800036143618361C3610362FEF775FD50B932
:1021C80000210C48FEF768FB50B900210948FEF7CA
:1021D80091FB50B908BD4FF486710948FFF736FFE7
:1021E80040F213110648FFF731FF4FF48D71044890
:1021F800FFF72CFF2C000020005400400E0900209F
:102208009C24000800B597B002230C930123109377
:1022180010231193002313930CA8FFF741F930BB47
:102228000F2307930021089109910A910B9107A8A0
:10223800FFF774FCF8B9202301930023049301A845
:10224800FEF784FBD8B9FFF753FD0F4BA3FB003013
:102258008009FEF773FF0420FEF786FF002211466F
:102268004FF0FF30FEF72CFF17B05DF804FBD921C3
:102278000648FFF7EBFEE7210448FFF7E7FEEE21EB
:102288000248FFF7E3FE00BFD34D62109C2400080C
:1022980008B5FEF7A5FFFFF7B5FFFFF75DFEFFF7EF
:1022A800D7FEFFF74FFFFFF779FF144C08221146BE
:1022B8002046FFF729FE01220C212046FFF724FEC5
:1022C800022204212046FFF71FFE00221146204665
:1022D800FFF71AFE08212046FEF7B0FA0C21204627
:1022E800FEF7ACFA04212046FEF7A8FA00212046A2
:1022F800FEF7A4FA0248FDF7A8FFFEE778000020E1
:10230800B8000020072805D9A0F12003DBB25D2B17
:1023180000D92E20704710B584B0044640238DF8AC
:102328000C308DF80D1081884FF4FA730093022356
:1023380003AA0068FEF716FD0023E3720120FEF7EA
:1023480073FF04B010BD00B585B000238DF80C30C4
:102358008DF80D10818800684FF4FA7300930223FA
:1023680003AAFEF7FFFC0120FEF75EFF05B05DF84B
:1023780004FB38B505460C4606E0FFF7C3FF0146E7
:102388002846FFF7C8FF013420780028F5D138BD6A
:1023980010B504460121FFF7D6FF0123E37210BDF3
:1023A800DFF834D0002103E00C4B5B584350043174
:1023B8000B480C4B42189A42F6D30B4A02E0002312
:1023C80042F8043B094B9A42F9D3FFF797FC00F017
:1023D80011F8FFF75DFFFEE700300020B024000889
:1023E800000000200C0000200C0000200401002048
:1023F800FEE7000070B50D4E0D4CA41BA41000257F
:10240800A54209D10B4E0C4C00F018F8A41BA410DF
:102418000025A54205D170BD56F8253098470135ED
:10242800EEE756F8253098470135F2E7A82400086A
:10243800A8240008A8240008AC240008F8B500BFA8
:10244800F8BC08BC9E467047F8B500BFF8BC08BC8D
:042458009E467047E5
:10245C0002030405060708090A0B0C0D0E0F1010D9
:10246C000102030405060708090A0B0C0D0E0F10D8
:10247C000000000000000000010203040607080928
:10248C00707573682031000070757368203200001D
:0C249C005372632F6D61696E2E630000A7
:0424A800AD0100087A
:0424AC00890100089A
:0C24B000010000001000000000127A0083
:04000005080023A923
:00000001FF
